:020000040000FA
:10000000B0072020C9010000CD010000CF01000091
:1000100000000000000000000000000000000000E0
:10002000000000000000000000000000D1010000FE
:100030000000000000000000D3010000B511000026
:10004000D7010000D7010000D7010000D701000050
:10005000D7010000D7010000D7010000D701000040
:1000600000000000D7010000D701000000000000E0
:1000700000000000D7010000D7010000D7010000F8
:10008000D7010000D7010000D7010000D701000010
:10009000D7010000D70100000000000000000000B0
:1000A000D7010000D70100000000000000000000A0
:1000B000D701000000000000D7010000D7010000B8
:1000C00000F002F800F054F812A030C808382418E4
:1000D0002D18AC4201D100F04BF80FCCA246AB4634
:1000E0000CA730CF2D1B083F3F197C427F1E544484
:1000F0002D090426F441641EAC4201D300F038F807
:100100000126334200D0FB1A3343984754465D46DC
:10011000DFE70000542C0000742C000000000000F9
:10012000103A02D378C878C1FAD8520701D330C840
:1001300030C101D504680C60704700000000000069
:100140007047000000000000002300240025002666
:10015000103A01D378C1FBD8520700D330C100D583
:100160000B6070471FB500F05BF81FBD10B510BDE8
:1001700000F01EFF1146FFF7F5FF01F02FF800F029
:1001800036FF03B4FFF7F2FF03BC00F039FF0000B5
:1001900030B40C490C684A6823681068C0181060B5
:1001A000241D121D8C4207D28A4208D20C604A607C
:1001B00030BC4000400870470C00DC3CF6E70A0009
:1001C000DC3AF3E7E400202006480047FEE7FEE7BC
:1001D000FEE7FEE7FEE7FEE703480449024A044B58
:1001E00070470000C1000000B0032020B0072020AD
:1001F000B00320200B4A30B511460B4C60310B4642
:10020000DC3B0CC1372106E0020C8D0012185A515C
:10021000064A504300190A46491E002AF4DC30BD44
:100220000120E7E784002020E119D666CD0D01000A
:10023000002203098B4273D3030A8B4258D3030B6A
:100240008B423CD3030C8B4221D312E003460B4379
:100250007FD4002243088B4274D303098B425FD3BF
:10026000030A8B4244D3030B8B4228D3030C8B42EB
:100270000DD30902FF2212BA030C8B4202D31212D1
:10028000090265D0030B8B4219D300E0090AC30BA6
:100290008B4201D3CB03C01A5241830B8B4201D353
:1002A0008B03C01A5241430B8B4201D34B03C01A3C
:1002B0005241030B8B4201D30B03C01A5241C30AB4
:1002C0008B4201D3CB02C01A5241830A8B4201D325
:1002D0008B02C01A5241430A8B4201D34B02C01A0F
:1002E0005241030A8B4201D30B02C01A5241CDD2B4
:1002F000C3098B4201D3CB01C01A524183098B42FF
:1003000001D38B01C01A524143098B4201D34B01E7
:10031000C01A524103098B4201D30B01C01A52414A
:10032000C3088B4201D3CB00C01A524183088B42D1
:1003300001D38B00C01A524143088B4201D34B00BA
:10034000C01A5241411A00D201465241104670472C
:100350005DE0CA0F00D04942031000D34042534031
:100360009C46002203098B422DD3030A8B4212D3F1
:100370008901FC2212BA030A8B420CD38901921123
:100380008B4208D3890192118B4204D389013AD060
:10039000921100E08909C3098B4201D3CB01C01A35
:1003A000524183098B4201D38B01C01A5241430948
:1003B0008B4201D34B01C01A524103098B4201D336
:1003C0000B01C01A5241C3088B4201D3CB00C01AA3
:1003D000524183088B4201D38B00C01A5241D9D2BB
:1003E00043088B4201D34B00C01A5241411A00D23C
:1003F00001465241104663465B1001D34042002B38
:1004000000D54942704763465B1000D3404201B5B6
:100410000449002802DC491C084000E00846C046A8
:10042000C04602BDFFFFFF7F704770477047000066
:10043000F0B50C46871A9C410D46861A9D4103D2A1
:10044000C01BA141D21963410D0D1F0DC94EEC1BFC
:10045000AE435CD07F057F0D0026002F51D02D05C7
:10046000AC46A943DD020123ED0A1B051D432023F1
:100470001B1B24D41746E740381871412F46E7402C
:10048000CC199D402818314661410C0D27D161449B
:100490009A4013D50023401C594152000ED1400808
:1004A000400001224B005205D34207D305204007EC
:1004B000C14201D5B04900E0B0493046F0BD6B0003
:1004C000002A00D001229A181F23203C1B1B01D5B3
:1004D000002302E0E540281871410C0DD7D001241B
:1004E00024050919C407CD0740084908E40F28432B
:1004F0006144002CD5D00024401C61419A40D0D1E9
:10050000CDE76A05520DD9D1C90FC907D5E79C4D72
:100510004E00002801D0012400E0002434195F00BF
:10052000002A01D0012600E00026BE19954FAC42FA
:100530000CD8AE420AD8B44206D001256D05EC4273
:10054000BCD010461946F0BD9942FCD00020394677
:10055000F0BDF0B51FB40C460F46811A9F412546E9
:10056000861A9D4106D20125ED076F40401ABC4115
:1005700052187B41210D1E0D8D1BAC467D4D8D43C8
:100580007ED075056D0D7CD00D05AE46AC431B03CA
:100590001B0B794D52429D41202366469B1B14D371
:1005A0001746F740381800260090744160462F46E1
:1005B0000741E41900989D402818664116D47146F9
:1005C00071189A4025D5012320E093182A466A41E4
:1005D0005200002B00D0521C1E23203E9B1B002BE0
:1005E00061DD3541EE1728186641E8D500187641DF
:1005F0005B1C9A4000D3401C4B05F3181524E340C4
:1006000010D3002B52D071467118D30FC01802D3EB
:10061000491C05B0F0BD0123DB079A42F9D140081F
:100620004000F6E701225205B21801D1002853D04C
:100630000123CC0ADB029943891E002A08D1020C4F
:1006400003D0020C0004103902E0024600202039D9
:100650000023550B05D112020823550B01D152017D
:100660000D23550C01D112011B1DD50C01D1920097
:100670009B1C150D01D152005B1C2025EE1A01E0D8
:100680002CE022E00546F54015439840CA1AE107E0
:1006900069181305C918002ABBDA03204007081897
:1006A000C10FC9070FE071466118B2E7F1074008B2
:1006B0000843711071444A000CD001235B059A4233
:1006C000A7D2C90FC9070020A3E74905490D26D1C4
:1006D000002001E00028F4D100219AE7284D6600AF
:1006E000002801D0012100E0002171185F00002ADC
:1006F00001D0012600E00026BE19224FA94210D8E1
:10070000AE420ED8B14208D001256D05E94206D0AF
:100710001946A802414010467BE79C4201D0214681
:1007200077E70020394674E710B50C465C4005D5E4
:100730000124E4076340FFF70CFF10BDFFF778FECC
:1007400010BD30B40C465C4004D50124E40763407E
:1007500030BC6DE630BCFCE670B50124E4076140B6
:100760000D465D4002D4FFF763FE70BD6340FFF7A6
:10077000F0FE70BDFF0700000000F0FF0000F07FFA
:100780000000E0FF0000F87F30B50346CA02400DCC
:100790001043164D164C0A1502D02043002A06DBE2
:1007A000AA1A002A12DDD040FF2A0BDC30BD520508
:1007B000520D01D140004008AA1A07D4D04040424F
:1007C000FF2A01DD002030BD0028FCDD4A00002B9F
:1007D00001D0012000E00020101801225205D04273
:1007E000F0D8C817C043604030BD00001E040000B0
:1007F000000000801F22030C02D10F22000402D04F
:10080000030E03D004E00020014670470002083ABE
:10081000030F01D10001121F830F01D18000921E2E
:10082000002801DB4000521E120551184205C0127B
:10083000411810467047C10FC90700D0404201223D
:1008400092071143D6E701218907D3E7F0B58B4C16
:100850000F09254689B0BD437BD01D092646AE430E
:10086000FAD00E465E402740F60F3E43254071D039
:1008700024012142FBD0FF24AD19A4042D1B0395B4
:1008800001252D05DB02DB0AC9022B43C90A2943D6
:100890001E010901040F130F050121431701880BE5
:1008A000820391432D098C46A90B1E438A0395436D
:1008B000B30B9A0396433F09BA0B9403A7430296DE
:1008C0002E467E430497B6464E19D7190C4601961C
:1008D000544305977E43371B7646BF1B3601B64609
:1008E000BE0B361900967646BC043719009C01D31E
:1008F000641C00946400002F01D001263443029E42
:10090000049F754366467E430496760034196E0054
:1009100034190094029C019E1C196643751BAE4657
:10092000069465464519059C05956C4359437546E3
:100930000891691A0191049E01465143A41B049138
:10094000611A009C0791E10605D06109012211435B
:1009500002E072E06EE06109089D00272C0A2D0676
:100960006918049D7C412A0A2D066918019D62417F
:10097000AC0DAD026D185441079A910D92025519B4
:100980006141029A644658435443069B059A5A4370
:10099000121A131B9A0E9B015B187A41010B00057A
:1009A000C3185141220A200644195A419A4200D2E2
:1009B000491C01204002814203D315230226F6433D
:1009C00002E014230326F6432020C51AA940174647
:1009D000AF40DA400A4320460399D84009147318FF
:1009E00019055118039A3843D2075140AC4009D039
:1009F0000122944006D30022401C5141002C01D119
:100A0000400840001E4A934212D3012203989206E6
:100A1000904207DB0520400709181A480143C0121D
:100A2000414004E0032040070818C10FC907002017
:100A300009B0F0BD0020F107FAE705180C464C415B
:100A400011486D42A04115D394181A465A410E48D8
:100A5000644290410ED301204A004005824209D3EE
:100A60005A00824206D35940C90F084AC9070020DC
:100A70001143DDE700200649DAE700000000FF0728
:100A8000FE070000FFFFFF7F0000E0FF0000F07F97
:100A90000000F87F10B501469E240002CA15A30786
:100AA000002A02D01843002A04DBA21A002A0CDD17
:100AB000D04010BD1206120E01D140004008A21A0B
:100AC00003D4D04040420028F3DDFF224800120644
:100AD000904201D9002010BDC817C043584010BD36
:100AE00010B500F009F8006810BD10B5044600F01C
:100AF00003F8046010BD000000487047EC0020209F
:100B0000F0B5F94D0C091E092C402E402F468BB034
:100B1000A7437DD0B543FCD0002E7AD0002CFCD06A
:100B20000D465D40ED0F2543AC1BFF25AD04641958
:100B30000894C502440DC9022143500DDC02044350
:100B40000120C00701430443D2020191200C110C83
:100B500000958C46010423468B430A9161460904A3
:100B6000E24D8A430991010A7D4449198039097887
:100B700005464D4301266D18F605751B6943C90CE2
:100B8000640B891C4C436418B5012C1B250C2E04E6
:100B9000B4434C434D43210C691889090591009DCC
:100BA000E90701D00121C90704912C460199670882
:100BB000CD072F434C08059DE10B4D432D0C2946D5
:100BC0006646754302950D4645432E46029D7D1BA4
:100BD000B44100950D465D4301942C0C2F040D4645
:100BE0005543AE462D0C3D43029503947546049C37
:100BF0002D04641B049406D2029C039D641C0026F1
:100C000075410395029401AC70CC009F7D1B01E0FF
:100C10003EE162E1B4410904009507910194059910
:100C2000A4086143090C0C464443650BE7040C46D9
:100C300066467443A646640B3C430395029474468F
:100C4000049DE4042C1B049406D2029C039D641CA6
:100C5000002675410395029401AC70CC009F7D1B6A
:100C6000B44101940C465C430095650FE7000C46C7
:100C70005443A646640F3C43039502947446049D76
:100C8000E4002C1B049406D2029C039D641C0026E5
:100C900075410395029401AC70CC009F7D1BB4415B
:100CA000AE09AF06049DC900AD092F43049DA406FB
:100CB000AD060495079D344369180791059DE10B26
:100CC0004D432D0C29466646754302950D46454316
:100CD0002E46029D7D1BB44100950D465D43019457
:100CE0002C0C2F040D465543AE462D0C3D4302956A
:100CF00003947546049C2D04641B049406D2029C44
:100D0000039D641C002675410395029401AC70CCD0
:100D1000009F7D1BB44101948C050694079C890AB1
:100D2000611800950791019C0599A4086143090C7D
:100D30000D464543680BEF040D46644665436C0B56
:100D40003C43049FED047D1BAC4602D20025641C8D
:100D50006841009E019D371B854108465843019517
:100D60000C46460FC5005443600F28436546E40017
:100D70002C1B02D20025401C6E41019D3F1AB5413B
:100D80002846BD09800628438446A009BF064E02B6
:100D90000699A40676180743079D002068410A9922
:100DA000079019430020099B00906046FF191343E8
:100DB0004041E20F64003A43A4460446D71A8C41EE
:100DC000A04203D90120009020463A46C70F94184C
:100DD00040416246D20F2243644664000494009C62
:100DE000BE466400D71AA446044602978C41774653
:100DF000002F01D1A04204D96046401C8446029ACB
:100E00002046C40FA64694184041049A0546D20FC6
:100E1000224364466400D31A8D417146002901D1F2
:100E2000A84202D928461A46641C10430122002811
:100E300000D0164361020020079B891904465C41DB
:100E40000223002C02DB491813466441089DCE0A98
:100E50002D145D194B056705E10A2C050D1908993C
:100E60003E43C9076940002B08D0934006D30022B7
:100E7000761C5141002B01D1760876001C4A002DCA
:100E800043DB154241D0AA433FD030460BB0F0BD02
:100E900006180D464D41174C7642AC411AD39518B1
:100EA0001C465C41134A6D42A24113D301225205F4
:100EB0004C00D4420AD15C00D4420BD04B4002D546
:100EC00092021143E2E749004908DFE75940C90FA0
:100ED000C90718E000200849D8E7054801420DD1AC
:100EE0000342F7D0F2E700000000FF076C2100008A
:100EF0000000F07F0000E0FF0000F87F114859403B
:100F00000143C01241400020C0E70123089A9B061C
:100F10009A4205DC032252078918C90FC907B5E7B1
:100F2000052252078918074A1143D2125140ADE7F2
:100F300070B515461C4602460B4628462146FFF76B
:100F4000DFFD70BDFFFFFF7F70B505464800440D13
:100F5000124B0020002C0AD0634008D09A4206DAD7
:100F60006642B24203DD12054019514170BD002CAA
:100F700008D0002B09D0C90FC907002AF6DB084AA0
:100F8000114370BDC90FC90770BD28460A0310433D
:100F900002D00020034970BD284670BDFF07000045
:100FA0000000F07F0000F87F00487047EC00202030
:100FB0007546FFF7F9FFAE46050069465346C0087F
:100FC000C000854618B020B5FFF706F960BCB646EC
:100FD00000260027C0C5C0C5C0C5C0C5C0C5C0C5A6
:100FE000C0C5C0C5403D490849008D46704710B591
:100FF0000446C046C0462046FFF7C3F810BD0000B7
:1010000001491820ABBEFEE7260002007047811E92
:10101000091F00BFFCD27047B0B5112212028358DD
:101020000124A34383508B780C881C438B88234373
:10103000094C1C408358094D1D402B1983508B7956
:10104000CC791C43097A21437E23194080184268D9
:101050009A4351184160B0BD18670000E798FDFF42
:1010600010B50122120383180C789C6049788150D6
:1010700010BD000006488221C1600649016181213E
:101080000160012080030449086008637047C0467E
:101090009080424082000400A0120A400C480021C7
:1010A00001600320C1430B480246083A13680B4015
:1010B00013600168012291430160110203688B43B0
:1010C00003601103001F02680A4302607047C046B4
:1010D00008030B4008010B40084809494160FF2103
:1010E0000906084A13688B430321890759181160C0
:1010F00000218160072101607047C04610E000E0D8
:10110000FF7C000020ED00E010B5124C1249204693
:10111000FFF7A6FF11492046FFF77EFF0320C1031A
:101120000F4802688A43026001690E4A0A40113280
:101130000261416917220A4328218A4342614168BA
:1011400001221140436893435918416001681143DB
:10115000016010BD00001040582D00005A2D000005
:10116000001110400000FFFF80B500F009F8FFF704
:1011700081FFFFF793FFFFF7C7FFFFF7ADFF80BDCC
:1011800080B5074807494160074A5160074B5960DD
:1011900007490160116019601020FFF738FF80BD1A
:1011A00000080A40030000B100280A40000810406F
:1011B0000100002607480188C9087D2905D30021C0
:1011C000018005480121017070470188491C018098
:1011D0007047C0467A022020000020208CB0FFF724
:1011E000C3FFFF202E3004900020014F02E0C046D4
:1011F0007C0220200B900B98FFF71DFB884A894B3F
:10120000FFF724FB01F07EFB05460E460024224634
:10121000854BFFF71BFB2246844BFFF785FAFFF750
:10122000B3FA0B997854284631462246804BFFF793
:101230000DFB22467F4BFFF777FAFFF7A5FA0B99D4
:101240007D4A50540B98401CFFF7F5FA744A754BD1
:10125000FFF7FCFA01F056FB05460E462246724B9C
:10126000FFF7F4FA2246714BFFF75EFAFFF78CFAAC
:101270000B9979180A9148702846314622466C4BE2
:10128000FFF7E4FA22466B4BFFF74EFAFFF77CFAC2
:101290000B99694A571878700B98801CFFF7CBFAA6
:1012A0005F4A604BFFF7D2FA01F02CFB05460E4671
:1012B00022465D4BFFF7CAFA22465C4BFFF734FA31
:1012C000FFF762FA0A998870284631462246584B41
:1012D000FFF7BCFA2246574BFFF726FAFFF754FAFE
:1012E000B8700B98C01CFFF7A6FA4D4A4D4BFFF79C
:1012F000ADFA01F007FB05460E4622464A4BFFF7C2
:10130000A5FA2246494BFFF70FFAFFF73DFA0A9973
:10131000C870284631462246454BFFF797FA2246C9
:10132000444BFFF701FAFFF72FFAF87009970B9873
:10133000001DFFF780FAFC4AFC4BFFF787FA01F02B
:10134000E1FA05460E462246F94BFFF77FFA2246A0
:10135000F84BFFF7E9F9FFF717FA0A9908712846E1
:1013600031462246F54BFFF771FA2246F44BFFF760
:10137000DBF9FFF709FA38710B98401DFFF75BFAAC
:10138000E94AEA4BFFF762FA01F0BCFA05460E465D
:101390002246E74BFFF75AFA2246E64BFFF7C4F91D
:1013A000FFF7F2F90A9F7871284631462246E34B4F
:1013B000FFF74CFA2246E24BFFF7B6F9FFF7E4F9E4
:1013C000099948710B98801DFFF735FAD64AD74B1B
:1013D000FFF73CFA01F096FA05460E462246D44B3A
:1013E000FFF734FA2246D34BFFF79EF9FFF7CCF90B
:1013F000B8712846254631462246D04BFFF726FADB
:101400002246CF4BFFF790F9FFF7BEF90999887193
:101410000B98C94FC01D049988420FD0EAE6C04618
:10142000333333333333C33F0080514000005940DE
:101430000000494000004E404C012020C24803906B
:10144000C2480190C2480290C24C00952078002802
:1014500008D12078002805D12078002802D12078F2
:101460000028F3D03846049900F086F90224029847
:10147000B9A1224600F0ACFC019E3046B7A122463D
:1014800000F0A6FC01240398B5A1224600F0A0FCC0
:10149000B4A0B6A100F0D6FBA107304601F080FA57
:1014A0000190FEF775FEC0B2FFF7C5F907900A91EB
:1014B0000B950B98FFF7BFF99B4A9C4BFFF7C6F9BA
:1014C00001F020FA06460F4600242246984BFFF70B
:1014D000BDF9079D2A460A9BFFF726F9FFF754F945
:1014E000954A0B995054304639462246934BFFF7A4
:1014F000ADF92A4626460A9D2B46FFF715F9FFF758
:1015000043F9904A0B9950540B98401CFFF793F9FC
:10151000854A864BFFF79AF901F0F4F908900F46D7
:101520002246834BFFF792F9079C22462B46FFF792
:10153000FBF8FFF729F90B997F4A51180991487078
:101540000898394632467D4BFFF780F922462B46F4
:10155000FFF7EAF8FFF718F90B997A4A5118089142
:1015600048700B98801CFFF766F96F4A6F4BFFF7C6
:101570006DF901F0C7F905900F46344606963246DC
:101580006B4BFFF763F9079D2A460A9E3346FFF728
:10159000CBF8FFF7F9F80999887005983946224683
:1015A000664BFFF753F92C462A463346FFF7BCF843
:1015B000FFF7EAF8089988700B98C01CFFF73BF911
:1015C000594A5A4BFFF742F901F09CF905900F4632
:1015D000069D2A46564BFFF739F9224626460A9CB5
:1015E0002346FFF7A1F8FFF7CFF80999C8700598CF
:1015F00039462A46514BFFF729F932462346FFF771
:1016000093F8FFF7C1F80899C8700B98001DFFF711
:1016100012F9454A454BFFF719F901F073F90590A6
:101620000F462A462E46424BFFF710F9079D2A46E1
:101630002346FFF779F8FFF7A7F80999087105988D
:10164000394632463D4BFFF701F92A462346FFF75C
:101650006BF8FFF799F8089908710B98401DFFF790
:10166000EAF8314A314BFFF7F1F801F04BF90590F8
:101670000F4632462E4BFFF7E9F82C462A460A9DC4
:101680002B46FFF751F8FFF77FF809994871059845
:1016900039463246294BFFF7D9F822462B46FFF749
:1016A00043F8FFF771F8089948710B98801DFFF710
:1016B000C2F81D4A1D4BFFF7C9F801F023F9044693
:1016C0000F4632461A4BFFF7C1F8079D2A460A9E7D
:1016D0003346FFF729F8FFF757F809998871204634
:1016E0003946069A1446154BFFF7B0F82A4633469A
:1016F000FFF71AF8FFF748F8089988710B9DED1D60
:101700000498854200D0D3E612480470044602983B
:10171000174901F045F902900398164901F040F984
:101720000390054F009D91E6333333333333C33F8A
:1017300000805140000059407C02202000004940B8
:1017400000004E404C01202048E15A40F628384124
:101750001F85BB4100002020783000007831000058
:10176000783200004331206F70656E0074300000E5
:1017700000004040000080BFF0B58BB0039000290E
:10178000049122D0C81741400E1A00250A2730467E
:10179000394600F061FC4743F11B3027394308AA62
:1017A00051550A2E16D30A21FEF742FD08A840190A
:1017B000394341706421304600F04EFCAD1C632E6D
:1017C0000646E3D8691E284606E005A830210170C8
:1017D000012644E0681C2946049A002A03D508AA79
:1017E0002D231354881C08AA0021115401280646F1
:1017F00000DC012603233340042816DBEC4D02965F
:10180000354008A90E1F00213718FC7805AA54544A
:101810005218345CD470BC7854707C789470361F45
:10182000091D8D42F0D1401A029E002B17D008AA44
:101830008218521E127805AC6254012B0FD005AAF3
:10184000521808AC0419A41E24785470022B06D038
:1018500005AA511808AA8018C01E0078887005A82B
:1018600000218155F3480268D20708D00268D207E8
:1018700005D00268D20702D00268D207F3D16122F4
:1018800082610268D20708D00268D20705D00268D8
:10189000D20702D00268D207F3D1642282610368C2
:1018A000DB0708D00368DB0705D00368DB0702D03D
:1018B0000368DB07F3D182610368DB0708D00368A4
:1018C000DB0705D00368DB0702D00368DB07F3D131
:1018D000742383610368DB0708D00368DB0705D046
:1018E0000368DB0702D00368DB07F3D120238361A1
:1018F0000368DB0708D00368DB0705D00368DB0754
:1019000002D00368DB07F3D1732383610368DB072D
:1019100008D00368DB0705D00368DB0702D0036843
:10192000DB07F3D1302383610468E40708D004683F
:10193000E40705D00468E40702D00468E407F3D1A3
:101940002E2484610468E40708D00468E40705D005
:101950000468E40702D00468E407F3D169248461D1
:101960000468E40708D00468E40705D00468E407C5
:1019700002D00468E407F3D182610268D20708D07C
:101980000268D20705D00268D20702D00268D207E7
:10199000F3D12C2282610468E40708D00468E407CC
:1019A00005D00468E40702D00468E407F3D183613A
:1019B0000368DB0708D00368DB0705D00368DB0793
:1019C00002D00368DB07F3D1826105AA1278002AEE
:1019D0001CD005AB04E082615A785B1C002A15D04C
:1019E0000468E407F7D00468E407F4D00468E40767
:1019F000F1D00468E407F3D1EDE70268D20708D01C
:101A00000268D20705D00268D20702D00268D20766
:101A1000F3D1FF2383610268D20708D00268D2079E
:101A200005D00268D20702D00268D207F3D18361E1
:101A30000268D20708D00268D20705D00268D20730
:101A400002D00268D207F3D1029383617A4A176801
:101A500026257A4E06E0DB1B141F24681B195D192E
:101A6000B54210D23B4617689F4208D117689F4283
:101A700005D117689F4202D117689F42F3D0BB423D
:101A8000E9D9DB1BEBE7049E012E039F37DB032321
:101A900033400193042E00D385E0019D002D2ED00C
:101AA0007B5C0468E40708D00468E40705D0046898
:101AB000E40702D00468E407F3D18361012D1ED04E
:101AC00079184B780468E40708D00468E40705D067
:101AD0000468E40702D00468E407F3D18361022DAF
:101AE0000DD089780368DB0708D00368DB0705D0D1
:101AF0000368DB0702D00368DB07F3D1816101686B
:101B0000C90708D00168C90705D00168C90702D014
:101B10000168C907F3D101218161029B0168C907EE
:101B200008D00168C90705D00168C90702D001685B
:101B3000C907F3D183610168C90708D00168C907E3
:101B400005D00168C90702D00168C907F3D18361D4
:101B50000168C90708D00168C90705D00168C9072D
:101B600002D00168C907F3D1836113682620344984
:101B700006E0E41A151F2D6864192018884210D257
:101B80001C461368A34208D11368A34205D1136809
:101B9000A34202D11368A342F3D09C42E9D9E41ACC
:101BA000EBE70BB0F0BD22490E40002107E0C04634
:101BB000FCFFFF7F8361091DB14200D16DE77B5CB3
:101BC0000468E40708D00468E40705D00468E40763
:101BD00002D00468E407F3D183617D186B78046850
:101BE000E40708D00468E40705D00468E40702D0DD
:101BF0000468E407F3D18361AB780468E40708D094
:101C00000468E40705D00468E40702D00468E40728
:101C1000F3D18361EB780468E407CBD00468E40770
:101C2000C8D00468E407C5D00468E407F3D1C1E76D
:101C3000FCFFFF7F0811104018E000E000E2040004
:101C40000071020010B50B78604A02E09361611CDC
:101C50006378002B16D00C461168C907F6D01168BE
:101C6000C907F3D01168C907F0D01168C907F3D1CB
:101C7000ECE71168C90708D01168C90705D01168D9
:101C8000C90702D01168C907F3D12E2191611168EB
:101C9000C90708D01168C90705D01168C90702D063
:101CA0001168C907F3D1742191611368DB0708D06B
:101CB0001368DB0705D01368DB0702D01368DB0766
:101CC000F3D1782393611368DB0708D01368DB072F
:101CD00005D01368DB0702D01368DB07F3D19161ED
:101CE0001168C90708D01168C90705D01168C9076C
:101CF00002D01168C907F3D13D2191611168C9076C
:101D000008D01168C90705D01168C90702D0116849
:101D1000C907F3D122219161037802E09361601C2D
:101D20006378002B16D004461068C007F6D0106800
:101D3000C007F3D01068C007F0D01068C007F3D117
:101D4000ECE71068C00708D01068C00705D010681D
:101D5000C00702D01068C007F3D12020906110683E
:101D6000C00708D01068C00705D01068C00702D0AF
:101D70001068C007F3D191611068C00708D01068DF
:101D8000C00705D01068C00702D01068C007F3D1A3
:101D9000FF2090611168C90708D01168C90705D0F4
:101DA0001168C90702D01168C907F3D190611168A1
:101DB000C90708D01168C90705D01168C90702D042
:101DC0001168C907F3D1906110BDC04608111040D9
:101DD000F0B589B00C46012A21DB154600279B4E41
:101DE000314600F023FE01213943C9B2A94216D27F
:101DF000314600F01BFE02213943C9B2A9420ED27E
:101E0000314600F013FE03213943C9B2A94206D27C
:101E1000314600F00BFE3F1DF9B2A942E0D3FEF7B8
:101E200039FE002824D0C2170290014651408E1A74
:101E300000250A273046394600F00EF94743F11BCA
:101E40003027394306AA51550A2E16D30A21FEF728
:101E5000EFF906A84019394341706421304600F07B
:101E6000FBF8AD1C632E0646E3D8691E284606E043
:101E700003A830210170012646E0681C2946029A19
:101E8000002A03D506AA2D231354881C06A9002274
:101E90000A540128064600DC0126032535400428A3
:101EA00018DB01956A4D0296354006AA161F0022DE
:101EB0003718F97803AB99549918335CCB70BB7819
:101EC0004B707B788B70361F121D9542F0D1801AB3
:101ED000029E019D002D17D006A94118491E0978C0
:101EE00003AB9954012D0FD003A9891806ABC31871
:101EF0009B1E1B784B70022D06D003A9891806AAD9
:101F00008018C01E0078887003A8002181552178B0
:101F1000504802E08161541C5178002916D02246B5
:101F20000368DB07F6D00368DB07F3D00368DB0741
:101F3000F0D00368DB07F3D1ECE70168C90708D0EC
:101F40000168C90705D00168C90702D00168C9073F
:101F5000F3D12E2181610168C90708D00168C90742
:101F600005D00168C90702D00168C907F3D17621FD
:101F700081610168C90708D00168C90705D00168F7
:101F8000C90702D00168C907F3D1612181610168E5
:101F9000C90708D00168C90705D00168C90702D080
:101FA0000168C907F3D16C2181610168C90708D0B4
:101FB0000168C90705D00168C90702D00168C907CF
:101FC000F3D13D21816103A9097800291CD003AA1E
:101FD00004E081615178521C002915D00368DB07A9
:101FE000F7D00368DB07F4D00368DB07F1D00368A0
:101FF000DB07F3D1EDE70168C90708D00168C9071D
:1020000005D00168C90702D00168C907F3D1FF21D3
:1020100081610268D20708D00268D20705D0026841
:10202000D20702D00268D207F3D181610268D207D9
:1020300008D00268D20705D00268D20702D0026831
:10204000D207F3D1816109B0F0BDC0460000204144
:10205000FCFFFF7F0811104043088B421AD3002277
:1020600003098B4279D3030A8B425ED3030B8B4265
:1020700042D3030C8B4227D30902FF2212BA030C6E
:102080008B4202D31212090203D0030B8B4233D3CB
:102090001AE0D3E0411A8041401C704703460B43CD
:1020A00071D443088B42F5D3002203098B4254D3E9
:1020B000030A8B4239D3030B8B421DD3030C8B4293
:1020C00002D394466EE0090AC30B8B4201D3CB03C3
:1020D000C01A5241830B8B4201D38B03C01A524169
:1020E000430B8B4201D34B03C01A5241030B8B426B
:1020F00001D30B03C01A5241C30A8B4201D3CB0256
:10210000C01A5241830A8B4201D38B02C01A52413A
:10211000430A8B4201D34B02C01A5241030A8B423D
:1021200001D30B02C01A5241CDD2C3098B4201D355
:10213000CB01C01A524183098B4201D38B01C01AD3
:10214000524143098B4201D34B01C01A524103094A
:102150008B4201D30B01C01A5241C3088B4201D3F9
:10216000CB00C01A524183088B4201D38B00C01AA6
:10217000524143088B4201D34B00C01A5241411ACD
:10218000524110007047CA0F00D04942031000D3DB
:102190004042534000229C4603098B422DD3030A40
:1021A0008B4212D38901FC2212BA030A8B420CD350
:1021B000890192118B4208D3890192118B4204D379
:1021C000890137D0921100E08909C3098B4201D3FC
:1021D000CB01C01A524183098B4201D38B01C01A33
:1021E000524143098B4201D34B01C01A52410309AA
:1021F0008B4201D30B01C01A5241C3088B4201D359
:10220000CB00C01A524183088B4201D38B00C01A05
:102210005241D9D243088B4201D34B00C01A5241DC
:10222000411A00D201465241104663465B1000D36A
:102230004042704763465B1000D3404201B5002125
:10224000004201D0C9430846C046C04602BDF0B4B2
:10225000040C8BB2264682B25E430D0C1046370C3E
:102260005843360480190021794116466E43370CD5
:1022700036048019794126466E438919F0BC7047AF
:102280004900CA020243100000D004204A0D01D0C8
:1022900001221043044A490D914201D10221084311
:1022A000012800D105207047FF070000F7B596B060
:1022B00014460021A160D160179909914D00CD49C4
:1022C0006D088D4205DC179961602060002019B00F
:1022D000F0BDC949C94E8D4238DAD32709997F0527
:1022E0000029C74A1799334617DDFEF72AFAB54287
:1022F00006D0C44AC44BFEF724FA6160206009E0AE
:102300003A46C14BFEF71DFAC04AC14BFEF719FA17
:1023100061602060012019B0F0BDFEF705FAB542FA
:1023200006D0B84AB84BFEF7FFF96160206009E0BB
:102330003A46B54BFEF7F8F9B44AB54BFEF7F4F957
:10234000616020600020C04319B0F0BDB1498D42EA
:10235000179977DC490049080746AF4AAF4B04910B
:10236000FEF774FA0022AE4BFEF7DEF9FEF70CFA28
:102370000A90FEF760FAA24A334603910290FEF7F4
:1023800065FA3A46049BFEF7E7F906460F469D4A72
:102390009D4B03990298FEF759FA2A0D01250C92DC
:1023A00032463B46FEF7D8F961602060032D39D0F4
:1023B0004800410D0C98401A690169181139814291
:1023C00030DA98492801794408960D900818049746
:1023D0004368026803990298FEF738FA02460B46F2
:1023E0000791069004990898FEF7ABF906460F4648
:1023F000049B089AFEF7B0F9079B069AFEF7A1F92D
:1024000005918949049079440D984018C368826801
:1024100003990298FEF71AFA059B049AFEF791F9C0
:102420006D1CBDE70998002809DA01226068D2070F
:10243000504060600A9819B04042F0BD02E00A982E
:1024400019B0F0BD09030122090B12050E9089187D
:102450001798109140007549400D40184111C00671
:10246000C00E0D9113902021081A149000200690A0
:1024700005250790139800280D980CD0401982006C
:102480006B487844875813998F4010184168149806
:10249000C1400F4304E04019810066487844475822
:1024A00010993846FFF7D3FE06460A9138460E9932
:1024B000FFF7CDFE8A190A9B8A4201D2012100E072
:1024C0000021C9188C46AF00694679188B684E68A0
:1024D000C318834201D2012000E00020961936186B
:1024E000002802D0964202D903E0964201D2012090
:1024F00000E00020624612184E6068468B60C251B0
:1025000028466D1E0028B5DC0121029849074018B5
:10251000800F1390029805998000039E049D0B91F3
:10252000FEF789F9074630460891FEF78CF91D221F
:10253000D243FEF709FD10900F912846FEF783F96C
:102540003D22D243FEF700FD0E900D910B98FEF751
:102550007AF95D22D243FEF7F7FC0B910C900D9BAC
:102560000E9AFEF7E1F80F9B109AFEF7DDF83A4657
:10257000089BFEF7D9F800250E463A462846089BE8
:10258000FEF7DFF80F9B109AFEF7DBF80D9B0E9A13
:10259000FEF7D7F80B9B0C9AFEF7DEF8264A274B7E
:1025A000FEF754F907460D91254A264B3146284639
:1025B000FEF74CF93A460D9BFEF7B6F80F4615228A
:1025C0000C9092061D4B31462846FEF73FF93B46DC
:1025D0000C9AFEF7A9F8179A002A05DA139A5242C4
:1025E00013920122D207514061602060139819B004
:1025F000F0BD0000FB21E93F7CD90240FB21F93FFF
:10260000000040543163621A61B4D03D7370032EF0
:102610008A19A33BFB21394183C8C96D305FE43F70
:102620000000E03F16080000D60700000BFCFFFF8B
:102630008A07000070070000182D4454FB21F93D63
:102640003326A611460B113CF0B51FB44E00F920FD
:102650007608800584B00F46864204DA0498FEF7B7
:1026600093F8002838D0049A3B4610461946FEF7E6
:10267000EDF8044602462C480D460B4606217844E8
:1026800000F05CF822462B46FEF7E0F8019100903E
:102690003946079B069A0498FEF7D8F80746029138
:1026A00020462946019B009AFEF7D0F83A46029B45
:1026B000FEF747F8074600220091D24320462946FC
:1026C000FEF742FC194A96420ADA3A46009BFEF7A8
:1026D00038F80022164B23E00020154909B0F0BD60
:1026E000144A964202DD0024134D03E001225205F4
:1026F000B51A002422462B46FEF723F80646019120
:1027000022462B4600200A49FEF71BF80D460446D8
:102710003A463046009B0199FEF713F822462B46B5
:10272000FEF71AF809B0F0BD2E0500003333D33F91
:102730000000F03F0000E93F0000D23FF8B504463A
:102740004F1EC8000838211815461E4608684968FB
:102750003A4606239A4310D02A463346FEF776F8C7
:102760003A46D200083AA3181A687F1E5B68FDF744
:10277000DBFF06223B469343EED1022F23D0042FEA
:1027800011D0062F2FD12A463346FEF75FF8E36AB1
:10279000A26AFDF7C9FF2A463346FEF757F8636A77
:1027A000226AFDF7C1FF2A463346FEF74FF8E36978
:1027B000A269FDF7B9FF2A463346FEF747F8636979
:1027C0002269FDF7B1FF2A463346FEF73FF8E3687A
:1027D000A268FDF7A9FF2A463346FEF737F863687B
:1027E0002268FDF7A1FFF8BDF0B51FB4054648000B
:1027F0000C46F9214008890586B088420BDA284644
:102800002146FFF73DFD042801D100F071F828466C
:1028100021460BB0F0BD2A46234610461946FEF766
:1028200015F806460F462A462346FEF70FF8009095
:102830002548019132463B4605217844FFF77EFF4B
:10284000029010980391002829D0204A204B01992A
:102850000098FDF7FBFF0490059168460FC8FDF74F
:10286000F5FF002201910090D24309990898FEF7E4
:102870006BFB019B009AFDF764FF32463B46FDF778
:10288000E5FF099B089AFDF75CFF059B049AFDF79D
:1028900058FF2A462346FDF75FFF0BB0F0BD0B46FD
:1028A00030463946029AFDF7D1FF084A084BFDF73A
:1028B0003BFF019B009AFDF7C9FF2A462346FDF71F
:1028C00033FF0BB0F0BD00007204000049555555B0
:1028D0005555C5BF10B50122FEF736FB10BD0022CD
:1028E00010B5134610461146FEF70AF910BD000058
:1028F000034A10B500201107FEF726FB10BD0000AB
:1029000001FDFFFF00B54A00234B520887B09A42F1
:1029100003DC00221346009229E0204B9A4208D1A2
:10292000002808D10120FEF7E0F8FFF7D8FF07B034
:1029300000BD9A4203DBFFF7CDFF07B000BD02AA3E
:10294000FFF7B4FC8107890F012000290CD0012971
:1029500011D0022915D002A80FC8FFF775FE012279
:10296000D207514007B000BD009002A80FC8FFF782
:102970003BFF07B000BD02A80FC8FFF765FE07B018
:1029800000BD009002A80FC8FFF72EFF0122D2075A
:10299000514007B000BD0000FB21E93F0000F07F7F
:1029A00070B50125ED0704004C4020D4441A01D233
:1029B000001B0919C60D4B00F2B2FF2A29D01B0ECD
:1029C0002CD000020C0228432C43D31ADC400519FA
:1029D00010D2280A02D3401C6D0611D0761EF605CF
:1029E0008019FF2A00DA70BDC00DC00570BD6940B6
:1029F00000F07AF801200543C541521C761CE8E737
:102A000064089C40C90161408900E7D10124A043CA
:102A1000E4E71B0E440200D0034870BD002AFCD13D
:102A2000C00FC00770BD00BF0000C07F70B542007E
:102A300064414B005C41120E39D01B0E38D0FF2A86
:102A40003CD0FF2B3AD0D2187F3A40024902400ACC
:102A5000490A4518ED0106004E43000A090A484399
:102A60000104731A4019190C4318990F04D05B081C
:102A7000012149075B1A521CD80904D3401CF503F5
:102A800001D19D0607D0FF2A08D2D50506D0E4075C
:102A90002043401970BD0125A843F4E7002A01DC5A
:102AA000E00770BD2402FF202043C00570BD1B0E4F
:102AB000FF2A03D0FF2B01D0E00770BDFF263606AA
:102AC0004500B54206D84D00B54203D8D218FF2ABA
:102AD00000D0E7E7004870BD0000C07F70B5012559
:102AE000ED0704004C4022D4441A02D26C40001B73
:102AF0000919C60D4B00F2B2FF2A4BD01B0E50D065
:102B000000020C02A8432C43D31ADC40051B05D558
:102B1000AD0019D36D08761E521E37D0F605280A6F
:102B200001D2801970BD70416D0603D070BD69403F
:102B3000FFF73CFF9C4009026140490001D0401E64
:102B400070BD0124A04370BD6D081DD001202B0C69
:102B500001D12D0410302B0E01D12D0208302B0F86
:102B600001D12D01001DAB0F01D1AD00801CEB0F79
:102B700001D16D00401C361A121A6D00680AF50565
:102B80004019012A02DB70BD002070BDC036300A3A
:102B9000C00770BD1B0E440201D1FF2B00D10248BB
:102BA00070BD002AF0D070BD0000C07F00000000A2
:102BB0004C5555555555A53F7751C1166CC156BF5B
:102BC0009015CB19A001FA3EAD529C804F7E92BE6B
:102BD000C4B1B4BD9EEE213ED43888BEE9FAA8BD8A
:102BE00000004054FB21F93F3163621A61B4D03DCB
:102BF0000000601A61B4D03D7370032E8A19A33BA4
:102C00000000002E8A19A33BC14920259A837B39F5
:102C100000000000000000006E83F9A22915444E58
:102C2000D15727FCC0DD34F5999562DB4190433CD8
:102C3000AB6351FE61C5BBDE3A6E24B7E0D24D42B4
:102C4000EA2E49061C92D1091CEB1DFE3EA729B1B4
:102C5000F53582E88444BB2E26709CE9417E5FB442
:102C600039D69139F43953838B5F849C3B28F9BD65
:102C7000FF97F81F0F9805DE8B112FEF1F6D0A5A73
:102C8000CF7E366DB709CB27663F464F2DEA5F9E54
:102C9000C7BA27757BF1E5EBF739073DEA92528A0F
:102CA000B15FFB6B085D8D1F4630035600000000CE
:102CB000A6F810111111813FD561C119A0012ABFD9
:102CC0007DFEB157E31DC73EEB9C2B8AE6E55ABE5D
:102CD0007CD5CF5A3AD9E53D80807F7E7D7C7B7A5A
:102CE0007978777676757473727171706F6E6E6DB8
:102CF0006C6C6B6A6A69686867666665646463635E
:102D000062616160605F5F5E5E5D5D5C5C5B5B5AE3
:102D10005A59595858575756565555555454535350
:102D200052525251515050504F4F4F4E4E4D4D4DAB
:102D30004C4C4C4B4B4B4A4A4A49494948484847F6
:102D40004747474646464545454444444443434334
:102D50004342424242414141080000001800000045
:102D60000030000000000000882D0000000020203E
:102D70000800000020010000902D00000800202025
:102D8000A80700004801000001000000000000004A
:04000005000000C136
:00000001FF
