:020000040000FA
:10000000980120208D010000910100009301000063
:1000100000000000000000000000000000000000E0
:10002000000000000000000000000000950100003A
:100030000000000000000000970100000D12000009
:100040009B0100009B0100009B0100009B01000040
:100050009B0100009B0100009B0100009B01000030
:10006000000000009B0100009B0100000000000058
:10007000000000002D1200009B0100009B01000009
:100080009B0100009B0100009B0100009B01000000
:100090009B0100009B010000000000000000000028
:1000A0009B0100009B010000000000000000000018
:1000B0009B010000000000009B0100009B0100006C
:1000C00000F002F800F052F812A030C808382418E6
:1000D0002D18AC4201D100F049F80FCCA246AB4636
:1000E0000CA730CF2D1B083F3F197C427F1E544484
:1000F0002D090426F441641EAC4201D300F036F809
:100100000126334200D0FB1A3343984754465D46DC
:10011000DFE700004C2400006C2400000000000019
:10012000103A02D378C878C1FAD8520701D330C840
:1001300030C101D504680C60704700000000000069
:100140007047000000000000002300240025002666
:10015000103A01D378C1FBD8520700D330C100D583
:100160000B6070471FB51FBD10B510BD00F04CFFF0
:100170001146FFF7F7FF01F083F800F064FF03B4C6
:10018000FFF7F2FF03BC00F067FF000006480047DE
:10019000FEE7FEE7FEE7FEE7FEE7FEE70348044969
:1001A000024A044B70470000C10000009800202064
:1001B0009801202098002020002203098B4273D34D
:1001C000030A8B4258D3030B8B423CD3030C8B4264
:1001D00021D312E003460B437FD4002243088B4215
:1001E00074D303098B425FD3030A8B4244D3030BBE
:1001F0008B4228D3030C8B420DD30902FF2212BA83
:10020000030C8B4202D31212090265D0030B8B42FE
:1002100019D300E0090AC30B8B4201D3CB03C01AE8
:100220005241830B8B4201D38B03C01A5241430BC3
:100230008B4201D34B03C01A5241030B8B4201D3B3
:100240000B03C01A5241C30A8B4201D3CB02C01A1E
:100250005241830A8B4201D38B02C01A5241430A96
:100260008B4201D34B02C01A5241030A8B4201D385
:100270000B02C01A5241CDD2C3098B4201D3CB012C
:10028000C01A524183098B4201D38B01C01A5241DB
:1002900043098B4201D34B01C01A524103098B42DF
:1002A00001D30B01C01A5241C3088B4201D3CB00CA
:1002B000C01A524183088B4201D38B00C01A5241AD
:1002C00043088B4201D34B00C01A5241411A00D25D
:1002D00001465241104670475DE0CA0F00D04942C6
:1002E000031000D3404253409C46002203098B4236
:1002F0002DD3030A8B4212D38901FC2212BA030ABE
:100300008B420CD3890192118B4208D3890192113F
:100310008B4204D389013AD0921100E08909C309C4
:100320008B4201D3CB01C01A524183098B4201D3C6
:100330008B01C01A524143098B4201D34B01C01AB1
:10034000524103098B4201D30B01C01A5241C30829
:100350008B4201D3CB00C01A524183088B4201D398
:100360008B00C01A5241D9D243088B4201D34B00B3
:10037000C01A5241411A00D201465241104663460A
:100380005B1001D34042002B00D5494270476346C1
:100390005B1000D3404201B50449002802DC491C2F
:1003A000084000E00846C046C04602BDFFFFFF7F90
:1003B00070477047704700000246C80FC00781436E
:1003C0004B0030B54B405B009B0D20D01923DB0662
:1003D000C91801231B05994220DB0324A407042527
:1003E0001346AB400BD3002B04D1EB0613409B000C
:1003F000E34204D401246407002312195941FF2366
:100400001B0599420BD2C9000143500F09E0CB02F2
:1004100004D501430803024305D0054830BDFF2140
:10042000C905084330BD084607210905884330BD8A
:100430000000C07FF0B50C46871A9C410D46861A15
:100440009D4103D2C01BA141D21963410D0D1F0D67
:10045000C94EEC1BAE435CD07F057F0D0026002FFC
:1004600051D02D05AC46A943DD020123ED0A1B0541
:100470001D4320231B1B24D41746E7403818714125
:100480002F46E740CC199D402818314661410C0D9C
:1004900027D161449A4013D50023401C5941520092
:1004A0000ED14008400001224B005205D34207D331
:1004B00005204007C14201D5B04900E0B0493046AF
:1004C000F0BD6B00002A00D001229A181F23203CA7
:1004D0001B1B01D5002302E0E540281871410C0DDB
:1004E000D7D0012424050919C407CD0740084908BD
:1004F000E40F28436144002CD5D00024401C614106
:100500009A40D0D1CDE76A05520DD9D1C90FC9079C
:10051000D5E79C4D4E00002801D0012400E00024C6
:1005200034195F00002A01D0012600E00026BE1920
:10053000954FAC420CD8AE420AD8B44206D0012541
:100540006D05EC42BCD010461946F0BD9942FCD076
:1005500000203946F0BDF0B51FB40C460F46811A95
:100560009F412546861A9D4106D20125ED076F4021
:10057000401ABC4152187B41210D1E0D8D1BAC460B
:100580007D4D8D437ED075056D0D7CD00D05AE463D
:10059000AC431B031B0B794D52429D412023664601
:1005A0009B1B14D31746F74038180026009074415F
:1005B00060462F460741E41900989D40281866417F
:1005C00016D4714671189A4025D5012320E093185E
:1005D0002A466A415200002B00D0521C1E23203EA6
:1005E0009B1B002B61DD3541EE1728186641E8D5CD
:1005F000001876415B1C9A4000D3401C4B05F31851
:100600001524E34010D3002B52D071467118D30F3C
:10061000C01802D3491C05B0F0BD0123DB079A4284
:10062000F9D140084000F6E701225205B21801D185
:10063000002853D00123CC0ADB029943891E002AEB
:1006400008D1020C03D0020C0004103902E002466B
:10065000002020390023550B05D112020823550B29
:1006600001D152010D23550C01D112011B1DD50CD6
:1006700001D192009B1C150D01D152005B1C20255D
:10068000EE1A01E02CE022E00546F54015439840C3
:10069000CA1AE10769181305C918002ABBDA032032
:1006A00040070818C10FC9070FE071466118B2E78B
:1006B000F10740080843711071444A000CD001232F
:1006C0005B059A42A7D2C90FC9070020A3E74905D5
:1006D000490D26D1002001E00028F4D100219AE73D
:1006E000284D6600002801D0012100E0002171188A
:1006F0005F00002A01D0012600E00026BE19224F2B
:10070000A94210D8AE420ED8B14208D001256D05DD
:10071000E94206D01946A802414010467BE79C42B8
:1007200001D0214677E70020394674E710B50C4622
:100730005C4005D50124E4076340FFF70CFF10BDC2
:10074000FFF778FE10BD30B40C465C4004D50124A0
:10075000E407634030BC6DE630BCFCE670B50124B4
:10076000E40761400D465D4002D4FFF763FE70BDB3
:100770006340FFF7F0FE70BDFF0700000000F0FFD0
:100780000000F07F0000E0FF0000F87F30B5034676
:10079000CA02400D1043164D164C0A1502D02043D4
:1007A000002A06DBAA1A002A12DDD040FF2A0BDC41
:1007B00030BD5205520D01D140004008AA1A07D49D
:1007C000D0404042FF2A01DD002030BD0028FCDD82
:1007D0004A00002B01D0012000E000201018012267
:1007E0005205D042F0D8C817C043604030BD000069
:1007F0001E040000000000801F22030C02D10F2203
:10080000000402D0030E03D004E00020014670472C
:100810000002083A030F01D10001121F830F01D11A
:100820008000921E002801DB4000521E1205511864
:100830004205C012411810467047C10FC90700D0C9
:100840004042012292071143D6E701218907D3E7ED
:10085000F0B58B4C0F09254689B0BD437BD01D09EF
:100860002646AE43FAD00E465E402740F60F3E4382
:10087000254071D024012142FBD0FF24AD19A404EE
:100880002D1B039501252D05DB02DB0AC9022B4335
:10089000C90A29431E010901040F130F0501214351
:1008A0001701880B820391432D098C46A90B1E4327
:1008B0008A039543B30B9A0396433F09BA0B9403FB
:1008C000A74302962E467E430497B6464E19D71983
:1008D0000C460196544305977E43371B7646BF1B53
:1008E0003601B646BE0B361900967646BC0437195B
:1008F000009C01D3641C00946400002F01D00126E9
:100900003443029E049F754366467E4304967600F8
:1009100034196E0034190094029C019E1C19664320
:10092000751BAE46069465464519059C05956C43B6
:10093000594375460891691A0191049E0146514335
:10094000A41B0491611A009C0791E10605D061097E
:100950000122114302E072E06EE06109089D002768
:100960002C0A2D066918049D7C412A0A2D06691857
:10097000019D6241AC0DAD026D185441079A910D75
:10098000920255196141029A644658435443069BAA
:10099000059A5A43121A131B9A0E9B015B187A414F
:1009A000010B0005C3185141220A200644195A417F
:1009B0009A4200D2491C01204002814203D31523F0
:1009C0000226F64302E014230326F6432020C51A2C
:1009D000A9401746AF40DA400A4320460399D84061
:1009E0000914731819055118039A3843D207514056
:1009F000AC4009D00122944006D30022401C514152
:100A0000002C01D1400840001E4A934212D301221B
:100A100003989206904207DB0520400709181A4800
:100A20000143C012414004E0032040070818C10FF1
:100A3000C907002009B0F0BD0020F107FAE705184A
:100A40000C464C4111486D42A04115D394181A46EA
:100A50005A410E48644290410ED301204A0040059D
:100A6000824209D35A00824206D35940C90F084A2C
:100A7000C90700201143DDE700200649DAE700003E
:100A80000000FF07FE070000FFFFFF7F0000E0FF00
:100A90000000F07F0000F87F0121C9050123411803
:100AA00042001B06D3185B0E0AD0C1100722D206E3
:100AB000891840075242D14201D552008918704727
:100AC000090208D50146002A03D0C10FC90700203A
:100AD000704710467047420202D00020024970471A
:100AE000072109050143F4E70000F87F10B501462E
:100AF0009E240002CA15A307002A02D01843002A28
:100B000004DBA21A002A0CDDD04010BD1206120E22
:100B100001D140004008A21A03D4D040404200282E
:100B2000F3DDFF2248001206904201D9002010BDDB
:100B3000C817C043584010BD10B500F009F8006850
:100B400010BD10B5044600F003F8046010BD0000AD
:100B50000048704708002020F0B5F94D0C091E0927
:100B60002C402E402F468BB0A7437DD0B543FCD000
:100B7000002E7AD0002CFCD00D465D40ED0F2543B1
:100B8000AC1BFF25AD0464190894C502440DC902CD
:100B90002143500DDC0204430120C00701430443FC
:100BA000D2020191200C110C00958C4601042346C1
:100BB0008B430A9161460904E24D8A430991010A77
:100BC0007D4449198039097805464D4301266D1841
:100BD000F605751B6943C90C640B891C4C436418EA
:100BE000B5012C1B250C2E04B4434C434D43210C62
:100BF000691889090591009DE90701D00121C907FC
:100C000004912C4601996708CD072F434C08059D98
:100C1000E10B4D432D0C29466646754302950D4662
:100C200045432E46029D7D1BB44100950D465D4314
:100C300001942C0C2F040D465543AE462D0C3D431C
:100C4000029503947546049C2D04641B049406D2FB
:100C5000029C039D641C002675410395029401AC1F
:100C600070CC009F7D1B01E03EE162E1B4410904CC
:100C70000095079101940599A4086143090C0C465D
:100C80004443650BE7040C4666467443A646640B72
:100C90003C43039502947446049DE4042C1B049485
:100CA00006D2029C039D641C0026754103950294A4
:100CB00001AC70CC009F7D1BB44101940C465C4399
:100CC0000095650FE7000C465443A646640F3C436D
:100CD000039502947446049DE4002C1B049406D2F0
:100CE000029C039D641C002675410395029401AC8F
:100CF00070CC009F7D1BB441AE09AF06049DC900B6
:100D0000AD092F43049DA406AD060495079D344309
:100D100069180791059DE10B4D432D0C2946664648
:100D2000754302950D4645432E46029D7D1BB441F9
:100D300000950D465D4301942C0C2F040D46554340
:100D4000AE462D0C3D43029503947546049C2D043C
:100D5000641B049406D2029C039D641C002675410A
:100D60000395029401AC70CC009F7D1BB4410194AB
:100D70008C050694079C890A611800950791019CCF
:100D80000599A4086143090C0D464543680BEF041F
:100D90000D46644665436C0B3C43049FED047D1B8C
:100DA000AC4602D20025641C6841009E019D371BA1
:100DB00085410846584301950C46460FC5005443EB
:100DC000600F28436546E4002C1B02D20025401C1E
:100DD0006E41019D3F1AB5412846BD098006284352
:100DE0008446A009BF064E020699A406761807435A
:100DF000079D002068410A99079019430020099B2C
:100E000000906046FF1913434041E20F64003A43EB
:100E1000A4460446D71A8C41A04203D90120009071
:100E200020463A46C70F941840416246D20F2243EB
:100E3000644664000494009CBE466400D71AA4462D
:100E4000044602978C417746002F01D1A04204D975
:100E50006046401C8446029A2046C40FA646941859
:100E60004041049A0546D20F224364466400D31AD7
:100E70008D417146002901D1A84202D928461A465F
:100E8000641C10430122002800D016436102002098
:100E9000079B891904465C410223002C02DB491898
:100EA00013466441089DCE0A2D145D194B05670554
:100EB000E10A2C050D1908993E43C9076940002B2A
:100EC00008D0934006D30022761C5141002B01D15B
:100ED000760876001C4A002D43DB154241D0AA4318
:100EE0003FD030460BB0F0BD06180D464D41174CB3
:100EF0007642AC411AD395181C465C41134A6D42A8
:100F0000A24113D3012252054C00D4420AD15C0005
:100F1000D4420BD04B4002D592021143E2E7490084
:100F20004908DFE75940C90FC90718E00020084900
:100F3000D8E7054801420DD10342F7D0F2E700009F
:100F40000000FF07FC1800000000F07F0000E0FF39
:100F50000000F87F114859400143C0124140002071
:100F6000C0E70123089A9B069A4205DC0322520738
:100F70008918C90FC907B5E7052252078918074A1A
:100F80001143D2125140ADE770B515461C460246DA
:100F90000B4628462146FFF7DFFD70BDFFFFFF7FB0
:100FA00070B505464800440D124B0020002C0AD0B5
:100FB000634008D09A4206DA6642B24203DD120567
:100FC0004019514170BD002C08D0002B09D0C90F29
:100FD000C907002AF6DB084A114370BDC90FC907CB
:100FE00070BD28460A03104302D00020034970BD9B
:100FF000284670BDFF0700000000F07F0000F87F6A
:1010000000487047080020207546FFF7F9FFAE46FC
:10101000050069465346C008C000854618B020B593
:10102000FFF7BCF860BCB64600260027C0C5C0C5A7
:10103000C0C5C0C5C0C5C0C5C0C5C0C5403D4908C4
:1010400049008D46704710B50446C046C04620464C
:10105000FFF795F810BD704701491820ABBEFEE7B9
:1010600026000200811E091F00BFFCD2704700004D
:10107000B0B51122120283580124A34383508B7808
:101080000C881C438B882343094C1C408358094D12
:101090001D402B1983508B79CC791C43097A21434D
:1010A0007E231940801842689A4351184160B0BDB0
:1010B00018670000E798FDFF10B50122120383189E
:1010C0000C789C604978815010BD00000648822150
:1010D000C16006490161812101600120800304494A
:1010E000086008637047C046908042408200040058
:1010F000A0120A400C48002101600320C1430B48A4
:101100000246083A13680B401360016801229143BC
:101110000160110203688B4303601103001F026822
:101120000A4302607047C04608030B4008010B40A9
:10113000084809494160FF210906084A13688B43A2
:10114000032189075918116000218160072101607E
:101150007047C04610E000E0FF7C000020ED00E09A
:1011600010B5124C12492046FFF7A6FF1149204640
:10117000FFF77EFF0320C1030F4802688A43026025
:1011800001690E4A0A40911D0161416921220A4309
:101190001E218A4342614168012211404368934302
:1011A0005918416001681143016010BD00001040F2
:1011B0004025000042250000001110400000FFFF04
:1011C00080B500F009F8FFF781FFFFF793FFFFF705
:1011D000C7FFFFF7ADFF80BD80B5074807494160F5
:1011E000074A5160074B5960074901601160196057
:1011F0001020FFF737FF80BD00080A40030000B150
:1012000000280A4000081040010000260648016836
:101210007E4A914205DB814901220A70002101606A
:101220007047491C01607047680020200148006831
:101230007047C04620101040B0B57D2109024143DF
:101240000E480368262206E0E41A051F2D6864197B
:10125000A2188A4210D21C460368A34208D1036830
:10126000A34205D10368A34202D10368A342F3D08D
:101270009C42E9D9E41AEBE7B0BDC04618E000E0B3
:1012800084B0FFF79DFF00265B4F3046FFF7D5FA8D
:101290005A4A5B4BFFF7DCFA00F02AFFFFF78CF8A5
:1012A000FFF7FAFB00252A46564BFFF7D1FA2A46EC
:1012B000554B1C46FFF73AFAFFF768FA3860701C86
:1012C000FFF7BBFA4D4A4E4BFFF7C2FA00F010FF92
:1012D000FFF772F8FFF7E0FB2A464A4BFFF7B8FA30
:1012E0002A462346FFF722FAFFF750FA7860B01C2F
:1012F000FFF7A3FA414A424BFFF7AAFA00F0F8FEC3
:10130000FFF75AF8FFF7C8FB2A463E4BFFF7A0FA53
:101310002A462346FFF70AFAFFF738FAB860F41CAA
:101320000B2C1BD02046FFF788FA344A344BFFF7CA
:101330008FFA00F0DDFEFFF73FF8FFF7ADFB002668
:101340003246304BFFF784FA32462F4BFFF7EEF967
:10135000FFF71CFAF860661C103796E72B48FFF77A
:101360006BFFFF202E30009029482A4903912A491B
:1013700001912A4C2F4630E00225019E3046394625
:101380002A4600F031F93C460127039839462A469F
:1013900000F02AF9029829463A46274600F024F937
:1013A0001E4C27701EA000F04BF83046FFF774FB70
:1013B000124A134BFFF7BAF9FEF7FEFF01900398AC
:1013C000FFF76AFB1B4A1C4BFFF7B0F9FEF7F4FF6F
:1013D00003900298194900F0D9FE02900098C73096
:1013E000FFF72AFF20780028C6D00B220248009978
:1013F00000F042F8C0E7C0466C002020333333339E
:101400003333C33F0080514000005940881300002F
:1014100048E15A40F62838411F85BB410000202092
:1014200074302E7478743D224331206F70656E22C3
:10143000FFFFFF001F85EB51B81ED53F0000C0BF66
:101440000178002914D00B4A04E09161581C5978A6
:1014500000290DD003461068C007F6D01068C007F9
:10146000F3D01068C007F0D01068C007F3D1ECE7E4
:101470007047C04608111040F0B58FB00690079233
:10148000012A00DAACE00798421E0846114600F037
:10149000FBF9C0B20590401E04900CA8001F0390F9
:1014A00009A8811C0191401C0290002704E07F1CC8
:1014B0000798874200D193E0B80006990E58002E95
:1014C00024D00897F017314641400D1A00270A240E
:1014D0002846214600F0B6F94443291B3024214315
:1014E0000CAAD1550A2D17D30A21FEF765FE0CA8C8
:1014F000C019214341706421284600F0A3F9BF1CA4
:10150000632D0546E3D8791E384607E009A8302147
:1015100001700121334E42E0781C3946002E089FAD
:1015200003D50CAA2D231354881C2E4E0CA900227F
:101530000A540128014600DC0121042816DB0B4671
:10154000BB4A13400022039C2518EE7809AFBE5415
:10155000BE18275CF770AF7877706D78B570241F70
:10156000121D9342F0D1801A089F1E4E03230B4098
:1015700015D00CAC0419641E247809ADAC54012BB1
:101580000DD00CAC0419A41E2478029DAC54022B7F
:1015900005D00CABC018C01E0078019B985409AC54
:1015A000002060543046FFF74BFF2046FFF748FF0E
:1015B000A348FFF745FF0598022800D277E7049D6E
:1015C00009AC302020803046FFF73AFF20469C4C83
:1015D000FFF736FF2046FFF733FF6D1EF0D166E7B9
:1015E0000FB0F0BD4C250000F0B58BB00191012A81
:1015F00021DB154600278D4E314600F00DFE0121FE
:101600003943C9B2A94216D2314600F005FE022183
:101610003943C9B2A9420ED2314600F0FDFD032183
:101620003943C9B2A94206D2314600F0F5FD3F1D4B
:10163000F9B2A942E0D3FFF759FA002826D00546AF
:10164000C017294641400E1A00240A273046394661
:1016500000F0F8F84743F11B3027394308AA115529
:101660000A2E18D30A21FEF7A7FD08A8001939434E
:1016700041706421304600F0E5F8A41C632E064654
:10168000E3D8611E2046002D0DD508E005A83021C5
:101690000170012543E0601C2146002D03D508AAF6
:1016A0002D231354881C08A900220A54012805463A
:1016B00000DC012503232B40042816DB5C4C00953D
:1016C0002C4008AA151F00222E18F77805A98F5460
:1016D00089182F5CCF70B7784F7076788E702D1F79
:1016E000121D9442F0D1801A009D002B17D008A93A
:1016F0004118491E097805ACA154012B0FD005A94A
:10170000891808AC0419A41E24784C70022B06D04A
:1017100005A9891808AA8018C01E00788870019948
:1017200005A800274755002921D0C81741400D1AA8
:101730000A262846314600F085F84643A91B302486
:10174000214308AAD1550A2D16D30A21FEF734FDEC
:1017500008A8C019214341706421284600F072F89E
:10176000BF1C632D0546E3D8791E384606E002A863
:1017700030210170012544E0781C3946019A002A85
:1017800003D508AA2D231354881C08A900220A5443
:101790000128054600DC012503232B40042816DB25
:1017A000234C01952C4008AA151F00222E18F7780B
:1017B00002A98F5489182F5CCF70B7784F70767854
:1017C0008E702D1F121D9442F0D1801A019D002BA6
:1017D00017D008A94118491E097802ACA154012B61
:1017E0000FD002A9891808AC0419A41E24784C70E3
:1017F000022B06D002A9891808AA8018C01E0078FA
:10180000887002AC002060550AA0FFF719FE204640
:10181000FFF716FE08A0FFF713FE05A8FFF710FE5E
:101820000748FFF70DFE0BB0F0BDC0460000204199
:10183000FCFFFF7F780000002E76616C3D00000009
:101840005925000043088B421AD3002203098B421A
:1018500079D3030A8B425ED3030B8B4242D3030C32
:101860008B4227D30902FF2212BA030C8B4202D308
:101870001212090203D0030B8B4233D31AE0D3E0D8
:10188000411A8041401C704703460B4371D4430802
:101890008B42F5D3002203098B4254D3030A8B42B7
:1018A00039D3030B8B421DD3030C8B4202D39446D6
:1018B0006EE0090AC30B8B4201D3CB03C01A52411D
:1018C000830B8B4201D38B03C01A5241430B8B42D3
:1018D00001D34B03C01A5241030B8B4201D30B03BC
:1018E000C01A5241C30A8B4201D3CB02C01A5241E3
:1018F000830A8B4201D38B02C01A5241430A8B42A6
:1019000001D34B02C01A5241030A8B4201D30B028E
:10191000C01A5241CDD2C3098B4201D3CB01C01AA8
:10192000524183098B4201D38B01C01A52414309B2
:101930008B4201D34B01C01A524103098B4201D3A0
:101940000B01C01A5241C3088B4201D3CB00C01A0D
:10195000524183088B4201D38B00C01A5241430885
:101960008B4201D34B00C01A5241411A5241100020
:101970007047CA0F00D04942031000D34042534081
:1019800000229C4603098B422DD3030A8B4212D3BB
:101990008901FC2212BA030A8B420CD389019211ED
:1019A0008B4208D3890192118B4204D3890137D02D
:1019B000921100E08909C3098B4201D3CB01C01AFF
:1019C000524183098B4201D38B01C01A5241430912
:1019D0008B4201D34B01C01A524103098B4201D300
:1019E0000B01C01A5241C3088B4201D3CB00C01A6D
:1019F000524183088B4201D38B00C01A5241D9D285
:101A000043088B4201D34B00C01A5241411A00D205
:101A100001465241104663465B1000D34042704776
:101A200063465B1000D3404201B50021004201D063
:101A3000C9430846C046C04602BDF0B4040C8BB290
:101A4000264682B25E430D0C1046370C58433604CE
:101A500080190021794116466E43370C36048019EF
:101A6000794126466E438919F0BC70474900CA0285
:101A70000243100000D004204A0D01D0012210437F
:101A8000044A490D914201D102210843012800D1A5
:101A900005207047FF070000F7B596B014460021F7
:101AA000A160D160179909914D00CD496D088D4213
:101AB00005DC179961602060002019B0F0BDC949AC
:101AC000C94E8D4238DAD32709997F050029C74AC4
:101AD0001799334617DDFEF736FEB54206D0C44AE5
:101AE000C44BFEF730FE6160206009E03A46C14B0E
:101AF000FEF729FEC04AC14BFEF725FE616020605B
:101B0000012019B0F0BDFEF711FEB54206D0B84A6B
:101B1000B84BFEF70BFE6160206009E03A46B54B1A
:101B2000FEF704FEB44AB54BFEF700FE616020608C
:101B30000020C04319B0F0BDB1498D42179977DC40
:101B4000490049080746AF4AAF4B0491FEF780FEB3
:101B50000022AE4BFEF7EAFDFEF718FE0A90FEF7F4
:101B60006CFEA24A334603910290FEF771FE3A469C
:101B7000049BFEF7F3FD06460F469D4A9D4B0399D5
:101B80000298FEF765FE2A0D01250C9232463B466F
:101B9000FEF7E4FD61602060032D39D04800410D5F
:101BA0000C98401A690169181139814230DA984954
:101BB0002801794408960D90081804974368026834
:101BC00003990298FEF744FE02460B4607910690E1
:101BD00004990898FEF7B7FD06460F46049B089A3D
:101BE000FEF7BCFD079B069AFEF7ADFD05918949FE
:101BF000049079440D984018C3688268039902984C
:101C0000FEF726FE059B049AFEF79DFD6D1CBDE7C1
:101C10000998002809DA01226068D2075040606004
:101C20000A9819B04042F0BD02E00A9819B0F0BD20
:101C300009030122090B12050E90891817981091BB
:101C400040007549400D40184111C006C00E0D916D
:101C500013902021081A1490002006900525079063
:101C6000139800280D980CD0401982006B487844D6
:101C7000875813998F40101841681498C1400F433A
:101C800004E0401981006648784447581099384666
:101C9000FFF7D3FE06460A9138460E99FFF7CDFEB0
:101CA0008A190A9B8A4201D2012100E00021C91849
:101CB0008C46AF00694679188B684E68C31883421A
:101CC00001D2012000E0002096193618002802D029
:101CD000964202D903E0964201D2012000E00020A2
:101CE000624612184E6068468B60C25128466D1ECF
:101CF0000028B5DC0121029849074018800F139095
:101D0000029805998000039E049D0B91FEF795FDB6
:101D1000074630460891FEF798FD1D22D243FFF793
:101D20003FF910900F912846FEF78FFD3D22D243D8
:101D3000FFF736F90E900D910B98FEF786FD5D22A8
:101D4000D243FFF72DF90B910C900D9B0E9AFEF7E5
:101D5000EDFC0F9B109AFEF7E9FC3A46089BFEF754
:101D6000E5FC00250E463A462846089BFEF7EBFCAC
:101D70000F9B109AFEF7E7FC0D9B0E9AFEF7E3FC13
:101D80000B9B0C9AFEF7EAFC264A274BFEF760FDF8
:101D900007460D91254A264B31462846FEF758FD49
:101DA0003A460D9BFEF7C2FC0F4615220C90920698
:101DB0001D4B31462846FEF74BFD3B460C9AFEF77D
:101DC000B5FC179A002A05DA139A5242139201229F
:101DD000D207514061602060139819B0F0BD000037
:101DE000FB21E93F7CD90240FB21F93F0000405430
:101DF0003163621A61B4D03D7370032E8A19A33B1C
:101E0000FB21394183C8C96D305FE43F0000E03FEA
:101E100012080000D20700000BFCFFFF860700003D
:101E20006C070000182D4454FB21F93D3326A61100
:101E3000460B113CF0B51FB44E00F9207608800522
:101E400084B00F46864204DA0498FEF79FFC00280F
:101E500038D0049A3B4610461946FEF7F9FC044672
:101E600002462C480D460B460621784400F05CF8EB
:101E700022462B46FEF7ECFC019100903946079B69
:101E8000069A0498FEF7E4FC07460291204629468C
:101E9000019B009AFEF7DCFC3A46029BFEF753FCDE
:101EA000074600220091D24320462946FFF778F8E2
:101EB000194A96420ADA3A46009BFEF744FC002291
:101EC000164B23E00020154909B0F0BD144A964294
:101ED00002DD0024134D03E001225205B51A00244F
:101EE00022462B46FEF72FFC0646019122462B4642
:101EF00000200A49FEF727FC0D4604463A463046C4
:101F0000009B0199FEF71FFC22462B46FEF726FC9C
:101F100009B0F0BD2A0500003333D33F0000F03F85
:101F20000000E93F0000D23FF8B504464F1EC8004C
:101F30000838211815461E46086849683A4606239F
:101F40009A4310D02A463346FEF782FC3A46D20026
:101F5000083AA3181A687F1E5B68FEF7E7FB0622A3
:101F60003B469343EED1022F23D0042F11D0062FEE
:101F70002FD12A463346FEF76BFCE36AA26AFEF7CE
:101F8000D5FB2A463346FEF763FC636A226AFEF7F6
:101F9000CDFB2A463346FEF75BFCE369A269FEF7F8
:101FA000C5FB2A463346FEF753FC63692269FEF7F8
:101FB000BDFB2A463346FEF74BFCE368A268FEF7FA
:101FC000B5FB2A463346FEF743FC63682268FEF7FA
:101FD000ADFBF8BDF0B51FB4054648000C46F9212D
:101FE0004008890586B088420BDA28462146FFF76B
:101FF0003DFD042801D100F071F8284621460BB0C0
:10200000F0BD2A46234610461946FEF721FC064637
:102010000F462A462346FEF71BFC009025480191F7
:1020200032463B4605217844FFF77EFF0290109828
:102030000391002829D0204A204B01990098FEF7EF
:1020400007FC0490059168460FC8FEF701FC0022CA
:1020500001910090D24309990898FEF7A1FF019BD6
:10206000009AFEF770FB32463B46FEF7F1FB099BF8
:10207000089AFEF768FB059B049AFEF764FB2A4664
:102080002346FEF76BFB0BB0F0BD0B4630463946DE
:10209000029AFEF7DDFB084A084BFEF747FB019B5F
:1020A000009AFEF7D5FB2A462346FEF73FFB0BB00E
:1020B000F0BD00006E040000495555555555C5BF8B
:1020C00010B50122FEF76CFF10BD002210B51346BB
:1020D00010461146FEF740FD10BD0000034A10B542
:1020E00000201107FEF75CFF10BD000001FDFFFF9F
:1020F00000B54A00234B520887B09A4203DC002205
:102100001346009229E0204B9A4208D1002808D1BA
:102110000120FEF716FDFFF7D8FF07B000BD9A4279
:1021200003DBFFF7CDFF07B000BD02AAFFF7B4FC49
:102130008107890F012000290CD0012911D0022923
:1021400015D002A80FC8FFF775FE0122D207514033
:1021500007B000BD009002A80FC8FFF73BFF07B013
:1021600000BD02A80FC8FFF765FE07B000BD0090D4
:1021700002A80FC8FFF72EFF0122D207514007B077
:1021800000BD0000FB21E93F0000F07F70B5012594
:10219000ED0704004C4020D4441A01D2001B091959
:1021A000C60D4B00F2B2FF2A29D01B0E2CD0000224
:1021B0000C0228432C43D31ADC40051910D2280AFC
:1021C00002D3401C6D0611D0761EF6058019FF2A39
:1021D00000DA70BDC00DC00570BD694000F07AF82E
:1021E00001200543C541521C761CE8E764089C4069
:1021F000C90161408900E7D10124A043E4E71B0E37
:10220000440200D0034870BD002AFCD1C00FC007B3
:1022100070BD00BF0000C07F70B5420064414B003C
:102220005C41120E39D01B0E38D0FF2A3CD0FF2B58
:102230003AD0D2187F3A40024902400A490A45186A
:10224000ED0106004E43000A090A48430104731ACF
:102250004019190C4318990F04D05B080121490754
:102260005B1A521CD80904D3401CF50301D19D060A
:1022700007D0FF2A08D2D50506D0E407204340192D
:1022800070BD0125A843F4E7002A01DCE00770BD1A
:102290002402FF202043C00570BD1B0EFF2A03D07F
:1022A000FF2B01D0E00770BDFF2636064500B54282
:1022B00006D84D00B54203D8D218FF2A00D0E7E770
:1022C000004870BD0000C07F70B50125ED07040017
:1022D0004C4022D4441A02D26C40001B0919C60D8E
:1022E0004B00F2B2FF2A4BD01B0E50D000020C0262
:1022F000A8432C43D31ADC40051B05D5AD0019D3E8
:102300006D08761E521E37D0F605280A01D28019B4
:1023100070BD70416D0603D070BD6940FFF73CFF92
:102320009C4009026140490001D0401E70BD01245B
:10233000A04370BD6D081DD001202B0C01D12D04D0
:1023400010302B0E01D12D0208302B0F01D12D01A1
:10235000001DAB0F01D1AD00801CEB0F01D16D0052
:10236000401C361A121A6D00680AF5054019012A38
:1023700002DB70BD002070BDC036300AC00770BDE2
:102380001B0E440201D1FF2B00D1024870BD002A70
:10239000F0D070BD0000C07F4C5555555555A53F38
:1023A0007751C1166CC156BF9015CB19A001FA3EEA
:1023B000AD529C804F7E92BEC4B1B4BD9EEE213E14
:1023C000D43888BEE9FAA8BD00004054FB21F93F8B
:1023D0003163621A61B4D03D0000601A61B4D03D2F
:1023E0007370032E8A19A33B0000002E8A19A33BA9
:1023F000C14920259A837B390000000000000000BD
:102400006E83F9A22915444ED15727FCC0DD34F55F
:10241000999562DB4190433CAB6351FE61C5BBDEE5
:102420003A6E24B7E0D24D42EA2E49061C92D109F9
:102430001CEB1DFE3EA729B1F53582E88444BB2E76
:1024400026709CE9417E5FB439D69139F4395383C3
:102450008B5F849C3B28F9BDFF97F81F0F9805DE22
:102460008B112FEF1F6D0A5ACF7E366DB709CB2720
:10247000663F464F2DEA5F9EC7BA27757BF1E5EBB5
:10248000F739073DEA92528AB15FFB6B085D8D1FF9
:102490004630035600000000A6F810111111813FCC
:1024A000D561C119A0012ABF7DFEB157E31DC73E0A
:1024B000EB9C2B8AE6E55ABE7CD5CF5A3AD9E53D4E
:1024C00080807F7E7D7C7B7A797877767675747371
:1024D000727171706F6E6E6D6C6C6B6A6A69686830
:1024E000676666656464636362616160605F5F5EC6
:1024F0005E5D5D5C5C5B5B5A5A595958585757563C
:1025000056555555545453535252525151505050A0
:102510004F4F4F4E4E4D4D4D4C4C4C4B4B4B4A4AF2
:102520004A49494948484847474747464646454536
:10253000454444444443434343424242424141416F
:1025400004000000180000000030000061646420F6
:1025500073302E69642C302C00FFFFFF0000000058
:10256000802500000000202008000000200100005D
:10257000882500000800202090010000480100008C
:08258000010000000000000052
:04000005000000C136
:00000001FF
